:020000040800F2
:100000000006002031010008390100083B0100080A
:100010003D0100083F010008410100080000000008
:100020000000000000000000000000004301000884
:1000300045010008000000004701000849010008D0
:100040004B0100084B0100084B0100084B01000860
:100050004B0100084B0100084B0100084B01000850
:100060004B0100084B0100084B0100084B01000840
:100070004B0100084B0100084B0100084B01000830
:100080004B0100084B0100084B0100084B01000820
:100090004B0100084B0100084B0100084B01000810
:1000A0004B0100084B0100084B0100084B01000800
:1000B0004B0100084B0100084B0100084B010008F0
:1000C0004B0100084B0100084B0100084B010008E0
:1000D0004B0100084B0100084B0100084B010008D0
:1000E0004B0100084B0100084B0100084B010008C0
:1000F0004B0100084B0100084B0100084B010008B0
:100100004B0100084B0100084B0100084B0100089F
:100110004B0100084B0100084B0100084B0100088F
:100120004B0100084B0100084B0100084B0100087F
:100130000948804709480047FEE7FEE7FEE7FEE77B
:10014000FEE7FEE7FEE7FEE7FEE7FEE704480549B7
:10015000054A064B70470000A50200080D03000881
:100160000000002000060020000200200002002005
:10017000704770477047000080B500F001F880BDFF
:1001800084B000200390029041F20001C4F2020109
:10019000086840F480300860FFE741F20000C4F2D4
:1001A0000200006800F400300290039801300390D0
:1001B000FFE702990020019039B9FFE70398B0F5F5
:1001C000A06018BF01200190FFE70198C007002838
:1001D000E3D1FFE741F20000C4F2020000688003AF
:1001E000002803D5FFE70120029002E000200290E2
:1001F000FFE70298012851D1FFE742F20001C4F263
:100200000201086840F010000860086820F0030050
:100210000860086840F00200086041F20401C4F27E
:10022000020100910868086008680860086840F4E6
:1002300080600860086820F47C100860086840F45A
:10024000E810086041F20001C4F20201086840F0C1
:1002500080700860FFE741F20000C4F2020000680D
:100260008001002801D4FFE7F5E741F20401C4F260
:100270000201086820F003000860086840F00200EE
:100280000860FFE741F20400C4F20200006800F0D9
:100290000C00082801D0FFE7F4E700E0FFE704B016
:1002A0007047000080B541F20002C4F202021068FB
:1002B00040F00100106041F20401C4F2020108683C
:1002C0000023CFF6FF031840086010684FF6FF7355
:1002D000CFF6F66318401060106820F4802010609C
:1002E000086820F4FE00086041F20801C4F202012F
:1002F0004FF41F000860FFF73FFF4EF60851CEF2A3
:1003000000014FF00060086080BD00004FF00A005F
:100310004FF00B014FF00C024FF00D0300F009F805
:1003200000F00AF800F00BF8DFF81CE0DFF81CF032
:10033000FEE74FF0050570474FF0060670474FF097
:1003400007074FF008087047330300083F03000811
:040000050800030DDF
:00000001FF
